S017000046534C5F4C696E65466F6C6C6F7765722E6865785F
S113000000300020292900002513000031130000CE
S113001031130000311300003113000031130000CC
S113002031130000311300003113000031130000BC
S113003031130000311300003113000031130000AC
S1130040311300003113000031130000311300009C
S1130050311300003113000031130000311300008C
S1130060311300003113000031130000311300007C
S1130070892200009D270000311300003113000085
S1130080311300003113000031130000311300005C
S1130090311300003113000031130000311300004C
S11300A0311300003113000031130000311300003C
S11300B07D090000311300003113000031130000EA
S1130400FFFFFFFFFFFFFFFFFFFFFFFF7EFFFFFF79
S1130410002934D00123002210B488422CD30124B3
S11304202407A14204D2814202D209011B01F8E748
S1130430E400A14204D2814202D249005B00F8E701
S1130440884201D3401A1A434C08A04202D3001B2D
S11304505C0822438C08A04202D3001B9C08224360
S1130460CC08A04202D3001BDC082243002803D09E
S11304701B0901D00909E3E7101C10BC70470028D0
S113048001D00020C04307B4024802A140180290E2
S113049003BDC046D90000000029F0D003B5FFF722
S11304A0B9FF0EBC4243891A1847C046002941D0FF
S11304B010B4041C4C40A44601230022002900D59A
S11304C04942002800D5404288422CD30124240705
S11304D0A14204D2814202D209011B01F8E7E400DF
S11304E0A14204D2814202D249005B00F8E788426B
S11304F001D3401A1A434C08A04202D3001B5C08E3
S113050022438C08A04202D3001B9C082243CC083F
S1130510A04202D3001BDC082243002803D01B099D
S113052001D00909E3E7101C6446002C00D54042C1
S113053010BC7047002806D003DB0020C0434008ED
S113054001E08020000607B4024802A1401802908E
S113055003BDC046190000000029EBD003B5FFF726
S1130560A7FF0EBC4243891A1847C0467047C046CD
S1130570C046C046C04670470020C046C046C0467C
S1130580C046C04601300928F7D9C0467047C04666
S113059080B582B000AF021CBB1D1A8006E0FFF7D5
S11305A0EBFFBB1DBA1D1288643A1A80BB1D1B8861
S11305B0642BF4D806E0FFF7DBFFBB1DBA1D1288DD
S11305C00A3A1A80BB1D1B880A2BF4D8BD4602B018
S11305D080BDC04680B582B000AF786007E00A4BAA
S11305E0181CFFF7D5FF7B68084A9B187B607A6864
S11305F0054B9A42F3D87B689BB2181CFFF7C8FFDF
S1130600BD4602B080BDC04660EA0000A015FFFFF1
S113061080B584B000AF021CBB1D1A80094BFB607F
S113062008E0FB68181CFFF7D5FFBB1DBA1D128834
S1130630013A1A80BB1D1B88002BF2D1BD4604B0C1
S113064080BDC046EB51000080B584B000AF786037
S11306500F4BFB60FB687A689A60FB6801221A7191
S11306600C4BFA68DA61002000F02AF9021CFB68DE
S11306701A60FB681B68002B04D1064B0022DA6168
S1130680002300E0FB68181CBD4604B080BDC046D2
S113069000F0FF1F3CF0FF1F80B584B000AF78600E
S11306A0054BDB69FB60FB689B68181C00F07EFB54
S11306B0BD4604B080BDC0463CF0FF1F80B582B08B
S11306C000AF021CFB1D1A70C046FB1D1B78181CD2
S11306D000F086FB031C0B2BF7D0BD4602B080BD97
S11306E080B500AFC0460D2000F07AFB031C0B2B35
S11306F0F9D0C0460A2000F073FB031C0B2BF9D081
S1130700BD4680BD80B586B000AF786039603B1CC3
S1130710173300221A703B68002B01DA012300E032
S113072000233A1C0F3213703B683B613B1C0F33B0
S11307301B78002B02D03B695B423B613B69002B79
S113074030D13B1C17331B787A68D31830221A70C7
S11307503B1C17333A1C1732127801321A7021E00D
S11307603B69181C0A21FFF797FE0B1CDAB23B1CED
S11307700E3330321A703B1C17331B787A68D31847
S11307803A1C0E3212781A703B1C17333A1C17327B
S1130790127801321A703B69181C0A21FFF738FEDF
S11307A0031C3B613B69002BDAD13B1C0F331B78E4
S11307B0002B0DD03B1C17331B787A68D3182D22DD
S11307C01A703B1C17333A1C1732127801321A7014
S11307D03B1C163300221A702EE03B1C16331B7888
S11307E07A68D2183B1C0D3312781A703B1C1633EE
S11307F01B787A68D3183A1C173211783A1C1632CF
S113080012788A1A013A79688A1812781A703B1C8D
S113081017331A783B1C16331B78D31A013B7A68BA
S1130820D3183A1C0D3212781A703B1C16333A1C3A
S11308301632127801321A703B1C17331B785B088E
S1130840DBB23A1C163212789A42C6D33B1C1733D9
S11308501B787A68D31800221A70BD4606B080BD92
S113086080B586B000AF78603B1C173300221A7045
S11308703A1C08327B68101C191CFFF743FF13E075
S1130880C0463B1C17331B783A1C0832D35C181C37
S113089000F0A6FA031C0B2BF3D03B1C17333A1CB5
S11308A01732127801321A703B1C17331B783A1C2A
S11308B00832D35C002BE3D1BD4606B080BDC046F0
S11308C080B584B000AF7860254B9B69002B36D18E
S11308D0244BFB60FB687A685A60FB6801221A703B
S11308E0214BFA681A60214A2049214BCB58012137
S11308F019431F4BD1501F4B80221A601D4B2022DD
S11309009A601C4B04225A601B4A1B49C7239B0054
S1130910CB58FF218B4380211943C7239B00D1501F
S1130920154B154A1268802149050A431A60114B78
S113093041221A600A4BFA689A61FB680CE0084B82
S11309409B69FB60FB687A685A60FB681B7801331B
S1130950DAB2FB681A70FB68181CBD4604B080BD8F
S11309603CF0FF1F0CF0FF1F14F0FF1F0070044049
S1130970381000000000044000E100E080B582B0BF
S113098000AF084B1B687B60074B074A1268802145
S11309900A431A607B685B68181CFFF77DFEBD463E
S11309A002B080BD14F0FF1F0000044080B584B085
S11309B000AF7860334BDB68002B52D1324BFB60C5
S11309C0FB687A689A60FB6801221A712F4A2F49E2
S11309D02F4BCB588021490419432D4BD1502D4B1B
S11309E000221A602B4B00225A602A4B0022DA6044
S11309F0284B00225A61274B0022DA61254B002242
S1130A005A62244B0022DA62224B00225A63214BA1
S1130A10832212019A601F4B2C225A631D4B002221
S1130A209A631C4B2C22DA601A4B00221A611A4B6F
S1130A30194A5169194A0A408021C9000A435A6176
S1130A40154B154A1168154A0A408021C9000A430A
S1130A501A60FB6808221A600A4BFA68DA60FB68BD
S1130A600CE0084BDB68FB60FB687A689A60FB6803
S1130A701B790133DAB2FB681A71FB68181CBD4696
S1130A8004B080BD3CF0FF1F18F0FF1F007004404D
S1130A903C1000000080034000C00440FFF8FFFE4B
S1130AA080B584B000AF78607B68FB60074B074A71
S1130AB012689821101C8843011CFA6812680A43C2
S1130AC01A600023181CBD4604B080BD008003409A
S1130AD080B584B000AF786039600B4B9A683B1CDA
S1130AE00E331A803B1C0E333A1C0E32128801322C
S1130AF01A803B683A1C0E3212881A800023181C94
S1130B00BD4604B080BDC0460080034080B582B0BD
S1130B1000AF7860FB1C19703B1C1A80FB1C1B780F
S1130B20012B01D9822313E0FB1C1B780A4AD35CF6
S1130B30002B01D009230BE00849FB1C1B78084A51
S1130B40D35C3A1C12880133DB00CB189A60002373
S1130B50181CBD4602B080BDF8310000008003407F
S1130B60F431000080B584B000AF7860104BFB60B6
S1130B70FB687A689A60FB6800221A71FB6801229C
S1130B80DA800C4BFA685A610020FFF70FFF021C51
S1130B90FB681A60FB681B68002B04D1054B00221C
S1130BA05A61002300E0FB68181CBD4604B080BDF8
S1130BB024F0FF1F3CF0FF1F80B584B000AF7860C5
S1130BC07B68FB60FB681B79002B07D1FB68012263
S1130BD01A71FB681B68181CFFF762FF0023181CBE
S1130BE0BD4604B080BDC04680B584B000AF786017
S1130BF00A1CBB1C1A807B68FB60FB68BA1C128849
S1130C00DA807B68181C00F005F80023181CBD4628
S1130C1004B080BD80B586B000AF78607B683B616E
S1130C203B691A683B1C0E33101C191CFFF750FF5C
S1130C303B1C0E331B88002B05D13B1C16333A6931
S1130C40D2881A800CE03B1C0E331B883A69D28888
S1130C505343802212029B181A0C3B1C16331A8031
S1130C603B691A683B1C16331B88101C01211A1C93
S1130C70FFF74CFFBD4606B080BDC04680B584B0CA
S1130C8000AF7860104BFB60FB687A689A60FB6881
S1130C9000221A71FB680122DA800C4BFA681A618F
S1130CA00020FFF783FE021CFB681A60FB681B68C8
S1130CB0002B04D1054B00221A61002300E0FB68DD
S1130CC0181CBD4604B080BD30F0FF1F3CF0FF1F70
S1130CD080B584B000AF78607B68FB60FB681B79EB
S1130CE0002B07D1FB6801221A71FB681B68181CD2
S1130CF0FFF7D6FE0023181CBD4604B080BDC046D5
S1130D0080B584B000AF78600A1CBB1C1A807B6875
S1130D10FB60FB68BA1C1288DA807B68181C00F040
S1130D2005F80023181CBD4604B080BD80B586B00C
S1130D3000AF78607B683B613B691A683B1C0E33EB
S1130D40101C191CFFF7C4FE3B1C0E331B88002B20
S1130D5005D13B1C16333A69D2881A800CE03B1C3F
S1130D600E331B883A69D2885343802212029B189F
S1130D701A0C3B1C16331A803B691A683B1C163349
S1130D801B88101C00211A1CFFF7C0FEBD4606B0CC
S1130D9080BDC04680B500AF034B034A52690821A9
S1130DA08A435A61BD4680BDC0F00F4080B582B011
S1130DB000AF786002F01EF9BD4602B080BDC046A7
S1130DC080B500AF044B1A68044B101C191C012297
S1130DD001F0CAFBBD4680BDE0F1FF1FA0F0FF1F7C
S1130DE080B584B000AF021CFB1D1A702F4B1B880A
S1130DF0402B01D10B2354E03B1C0F33EFF3108045
S1130E0072B618702A4B1B78DBB20133DBB2284A66
S1130E10191C1170012B04D13B1C0F331A78254B7C
S1130E201A70224B1B8801339AB2204B1A80224B32
S1130E301B881A1C2149F81D0078885401339AB282
S1130E401D4B1A801C4B1B883F2B02D91A4B0022C6
S1130E501A801B4B1B881A1C2023134012D1184BD9
S1130E601B88202213439AB2154B1A80154B1A681B
S1130E70154B1B88191C114BCB18101C191C012273
S1130E8001F0BEFB0A4B1B78DBB2013BDBB2084A24
S1130E90191C1170002B03D1064B187880F31088AD
S1130EA00023181CBD4604B080BDC046A2F0FF1F3D
S1130EB048F1FF1FE8F1FF1FA6F0FF1FA8F0FF1F76
S1130EC088F0FF1FE0F1FF1FA4F0FF1F80B500AF03
S1130ED00F4B00221A800F4B00221A800E4B002267
S1130EE01A800E4B00221A800D4B00221A800D4BE3
S1130EF000221A800C4B00221A80002001F07CFA98
S1130F00021C0A4B1A60FFF75BFFBD4680BDC0465A
S1130F1088F0FF1F8AF0FF1F8CF0FF1F8EF0FF1F69
S1130F20A2F0FF1FA4F0FF1FA6F0FF1FE0F1FF1FB8
S1130F3080B582B000AF7860174B1B880F2B18D890
S1130F40154B1B8801339AB2134B1A80134B1B8821
S1130F501A1C134908781349885401339AB20F4B69
S1130F601A800E4B1B880F2B0AD90C4B00221A80B7
S1130F7006E00D4B1B88402213439AB20A4B1A8099
S1130F800A4B1A68064B101C191C012201F0ECFADA
S1130F90BD4602B080BDC0468AF0FF1F8EF0FF1F21
S1130FA0A0F0FF1F90F0FF1F88F0FF1FE0F1FF1F6C
S1130FB080B582B000AF78601A4B1B8801339AB2B7
S1130FC0184B1A80174B1B883F2B02D9154B002254
S1130FD01A80154B1B88013B9AB2134B1A80124B93
S1130FE01B88002B13D0114B1B88202213439AB269
S1130FF00E4B1A800E4B1A680A4B1B88191C0D4B9A
S1131000CB18101C191C012201F0FAFA06E0074B58
S11310101A88DF2313409AB2044B1A80BD4602B0EB
S113102080BDC046A4F0FF1FA2F0FF1F88F0FF1F81
S1131030E0F1FF1FA8F0FF1F80B584B000AF786017
S11310401F4B1A683B1C0C33101C191C01F020FCAC
S1131050FB68002B31D0FA680223134001D004232B
S113106000E00023174A128813439AB2154B1A80E2
S1131070FA680823134001D0802300E00023114ABA
S1131080128813439AB20F4B1A80FB689AB2012359
S113109013409AB20B4B1B8813439AB2094B1A8024
S11310A0FA680423134001D0022300E00023054A18
S11310B0128813439AB2034B1A80BD4604B080BD14
S11310C0E0F1FF1F88F0FF1F80B582B000AF7860A9
S11310D0044B1B88022213439AB2024B1A80BD466A
S11310E002B080BD88F0FF1F80B500AF044B1A68C2
S11310F0044B101C191C012200F0ACFFBD4680BD3E
S1131100E4F1FF1F00F1FF1F80B500AF0F4B002279
S11311101A800F4B00221A800E4B00221A800E4BAD
S113112000221A800D4B00221A800D4B00221A80D7
S11311300C4B00221A80002000F0AEFE021C0A4B69
S11311401A60FFF7D1FFBD4680BDC046E8F0FF1F1F
S1131150EAF0FF1FECF0FF1FEEF0FF1F02F1FF1F8C
S113116004F1FF1F06F1FF1FE4F1FF1F80B582B0F9
S113117000AF7860174B1B880F2B18D8154B1B88B2
S113118001339AB2134B1A80134B1B881A1C134950
S113119008781349885401339AB20F4B1A800E4BC6
S11311A01B880F2B0AD90C4B00221A8006E00D4B2A
S11311B01B88402213439AB20A4B1A800A4B1A68BE
S11311C0064B101C191C012200F044FFBD4602B05E
S11311D080BDC046EAF0FF1FEEF0FF1F00F1FF1FC5
S11311E0F0F0FF1FE8F0FF1FE4F1FF1F80B582B0AD
S11311F000AF78601A4B1B8801339AB2184B1A80DF
S1131200174B1B883F2B02D9154B00221A80154B14
S11312101B88013B9AB2134B1A80124B1B88002B7C
S113122013D0114B1B88202213439AB20E4B1A8001
S11312300E4B1A680A4B1B88191C0D4BCB18101C3B
S1131240191C012200F052FF06E0074B1A88DF2325
S113125013409AB2044B1A80BD4602B080BDC0460A
S113126004F1FF1F02F1FF1FE8F0FF1FE4F1FF1F6D
S113127008F1FF1F80B584B000AF78601F4B1A6877
S11312803B1C0C33101C191C01F07CF8FB68002B70
S113129031D0FA680223134001D0042300E0002374
S11312A0174A128813439AB2154B1A80FA68082316
S11312B0134001D0802300E00023114A1288134315
S11312C09AB20F4B1A80FB689AB2012313409AB268
S11312D00B4B1B8813439AB2094B1A80FA680423F8
S11312E0134001D0022300E00023054A128813436F
S11312F09AB2034B1A80BD4604B080BDE4F1FF1FCF
S1131300E8F0FF1F80B582B000AF7860044B1B8803
S1131310022213439AB2024B1A80BD4602B080BD2A
S1131320E8F0FF1F80B500AF01F060FEBD4680BD50
S113133080B500AFFFBEBD4680BDC04680B500AFDE
S11313403A4A3B493B4BD1503B4A88235B0100213D
S1131350D150394A394BC0218902D150364A3649D5
S1131360374BCB58F02149011943354BD150324A00
S11313703149334BCB5801211943314BD150314BB7
S11313809B78DBB21A1C0823134007D02D4B2D4A3F
S11313909278D2B208210A43D2B29A70264A274BD5
S11313A00021D150244A2449274BC958274B1940BE
S11313B0254BD150204B204A1268C02109030A430F
S11313C01A601D4A1C49204BC958214B0B408021EF
S11313D0490419431C4BD1501E4B06221A701D4B55
S11313E000225A701B4B1B4AD278D1B21F220A40EA
S11313F0D2B2DA70184B80221A70164B00221A717E
S1131400144B00225A71C046124B9B79DBB21A1C52
S113141010231340F8D0C0460E4B9B79DBB21A1C44
S11314200C231340F8D1BD4680BDC04600E000E067
S113143000000000080D000000700440441000008B
S11314403810000000D0074004100000FFFFFEFF2A
S1131450FFFFFFFC004006400050064080B500AF8F
S11314604F4B4F4A11694F4A0A40E021C9000A43D1
S11314701A614D4B4C4A5279D2B21F218A43D2B2DF
S11314805A71494B484A1279D2B207218A43D2B2DF
S11314901A71464B454A1278D2B2D2B273218A43AA
S11314A0D2B250210A43D2B2D2B21A703F4B3F4A51
S11314B05278D2B2D2B263218A43D2B240210A43D3
S11314C0D2B2D2B25A70394B384A9278D2B2192178
S11314D08A43D2B29A70364B00221A70354B354A81
S11314E0D168354A0A40812149000A43DA60334A07
S11314F03249C7239B00CB581B02190AC7239B0000
S1131500D150274B264A116D264A0A40E021C900D2
S11315100A431A65294A2949C1239B00C958284B03
S11315201940C1239B00D150002000F079FC254BC9
S11315301B68181C00F0A4FC002000F0B5FB002080
S113154000F064FB0020FFF799FB0020FFF70AFB83
S11315500020FFF779F8002000F036F8002000F0B2
S1131560DDFA002000F062FA002000F0E7F9002024
S113157000F06CF9002000F0F1F8002000F076F89B
S1131580FFF7C2FD002000F00FFC002000F0DAFBA2
S1131590FFF700FCFFF79AFC62B6BD4680BDC0466B
S11315A000900440FFF8FFFE00F0074000D0074021
S11315B000E0074000C00440FDF8FFFE00E100E049
S11315C0FFFF00FF3CF0FF1F80B584B000AF7860E0
S11315D0134BFB60FB687A681A60124A1149124B7C
S11315E0CB588021890419430F4BD1500F4B002253
S11315F01A600E4B00225A600C4B0022DA600B4B2F
S113160000225A61094B0A4A9A60084B0F221A6059
S1131610084BFA681A62FB68181CBD4604B080BD0A
S11316204CF1FF1F007004403C1000000090034088
S1131630FFFF00003CF0FF1F80B582B000AF786070
S1131640034B00225A600023181CBD4602B080BD23
S11316500090034080B582B000AF7860024B5B68B5
S1131660181CBD4602B080BD0090034080B584B014
S113167000AF7860104BFB60FB687A681A600F4B10
S11316800E4A526920210A435A610C4B0B4A1268D4
S113169020218A431A600A4B094A5169094A0A40BF
S11316A0802149000A435A61074BFA689A63FB6830
S11316B0181CBD4604B080BD50F1FF1F00F00F4060
S11316C000900440FFF8FFFE3CF0FF1F80B582B09D
S11316D000AF78600A1CFB1C1A70FB1C1B78002BE3
S11316E006D0084B074A526920210A435A6105E093
S11316F0044B044A526920218A435A61BD4602B010
S113170080BDC04600F00FF880B584B000AF7860AB
S11317100B4B5A692023134005D1094B1A69202326
S11317201340FB6004E0064B1A6820231340FB605F
S1131730FB685A1E9341DBB2181CBD4604B080BD41
S113174000F00FF880B582B000AF7860024B202221
S11317505A60BD4602B080BD00F00FF880B584B079
S113176000AF7860104BFB60FB687A681A600F4B1F
S11317700E4A526904210A435A610C4B0B4A1268FF
S113178004218A431A600A4B094A9168094A0A40AB
S1131790802149000A439A60074BFA685A63FB6840
S11317A0181CBD4604B080BD54F1FF1F40F00F402B
S11317B000A00440FFF8FFFE3CF0FF1F80B582B09C
S11317C000AF78600A1CFB1C1A70FB1C1B78002BF2
S11317D006D0084B074A526904210A435A6105E0BE
S11317E0044B044A526904218A435A61BD4602B03B
S11317F080BDC04640F00FF880B584B000AF78607B
S11318000B4B5A690423134005D1094B1A6904236D
S11318101340FB6004E0064B1A6804231340FB608A
S1131820FB685A1E9341DBB2181CBD4604B080BD50
S113183040F00FF880B582B000AF7860024B04220C
S11318405A60BD4602B080BD40F00FF880B584B048
S113185000AF7860104BFB60FB687A681A600F4B2E
S11318600E4A526901210A435A610C4B0B4A126811
S113187001218A431A600A4B094A1168094A0A403D
S1131880802149000A431A60074BFA681A63FB680F
S1131890181CBD4604B080BD58F1FF1F40F00F4036
S11318A000A00440FFF8FFFE3CF0FF1F80B582B0AB
S11318B000AF78600A1CFB1C1A70FB1C1B78002B01
S11318C006D0084B074A526901210A435A6105E0D0
S11318D0044B044A526901218A435A61BD4602B04D
S11318E080BDC04640F00FF880B584B000AF78608A
S11318F00B4B5A690123134005D1094B1A69012383
S11319001340FB6004E0064B1A6801231340FB609C
S1131910FB685A1E9341DBB2181CBD4604B080BD5F
S113192040F00FF880B582B000AF7860024B01221E
S11319305A60BD4602B080BD40F00FF880B584B057
S113194000AF7860104BFB60FB687A681A600F4B3D
S11319500E4A526904210A435A610C4B0B4A12681D
S113196004218A431A600A4B094A9168094A0A40C9
S1131970802149000A439A60074BFA68DA62FB68DF
S1131980181CBD4604B080BD5CF1FF1FC0F00F40C1
S113199000C00440FFF8FFFE3CF0FF1F80B582B09A
S11319A000AF78600A1CFB1C1A70FB1C1B78002B10
S11319B006D0084B074A526904210A435A6105E0DC
S11319C0044B044A526904218A435A61BD4602B059
S11319D080BDC046C0F00FF880B584B000AF786019
S11319E00B4B5A690423134005D1094B1A6904238C
S11319F01340FB6004E0064B1A6804231340FB60A9
S1131A00FB685A1E9341DBB2181CBD4604B080BD6E
S1131A10C0F00FF880B582B000AF7860024B0422AA
S1131A205A60BD4602B080BDC0F00FF880B584B0E6
S1131A3000AF7860104BFB60FB687A681A600F4B4C
S1131A400E4A526908210A435A610C4B0B4A126828
S1131A5008218A431A600A4B094AD168094A0A4094
S1131A60802149000A43DA60074BFA689A62FB68EE
S1131A70181CBD4604B080BD60F1FF1F40F00F404C
S1131A8000A00440FFF8FFFE3CF0FF1F80B582B0C9
S1131A9000AF78600A1CFB1C1A70FB1C1B78002B1F
S1131AA006D0084B074A526908210A435A6105E0E7
S1131AB0044B044A526908218A435A61BD4602B064
S1131AC080BDC04640F00FF880B584B000AF7860A8
S1131AD00B4B5A690823134005D1094B1A69082393
S1131AE01340FB6004E0064B1A6808231340FB60B4
S1131AF0FB685A1E9341DBB2181CBD4604B080BD7E
S1131B0040F00FF880B582B000AF7860024B082235
S1131B105A60BD4602B080BD40F00FF880B584B075
S1131B2000AF7860104BFB60FB687A681A600F4B5B
S1131B300E4A526902210A435A610C4B0B4A12683D
S1131B4002218A431A600A4B094A5168094A0A4029
S1131B50802149000A435A60074BFA685A62FB68BD
S1131B60181CBD4604B080BD64F1FF1F40F00F4057
S1131B7000A00440FFF8FFFE3CF0FF1F80B582B0D8
S1131B8000AF78600A1CFB1C1A70FB1C1B78002B2E
S1131B9006D0084B074A526902210A435A6105E0FC
S1131BA0044B044A526902218A435A61BD4602B079
S1131BB080BDC04640F00FF880B584B000AF7860B7
S1131BC00B4B5A690223134005D1094B1A690223AE
S1131BD01340FB6004E0064B1A6802231340FB60C9
S1131BE0FB685A1E9341DBB2181CBD4604B080BD8D
S1131BF040F00FF880B582B000AF7860024B02224B
S1131C005A60BD4602B080BD40F00FF880B584B084
S1131C1000AF7860114BFB60FB687A681A60104B68
S1131C200F4A5269802189010A435A610C4B0C4ABC
S1131C3011680C4A0A401A600B4B0B4A516B0B4A51
S1131C400A40802149000A435A63094BFA689A60A2
S1131C50FB68181CBD4604B080BDC04668F1FF1F78
S1131C6000F00F40FFDFFFFF00900440FFF8FFFE8D
S1131C703CF0FF1F80B582B000AF78600A1CFB1CEB
S1131C801A70FB1C1B78002B04D0064B8022920197
S1131C905A6003E0034B802292019A60BD4602B071
S1131CA080BDC04600F00FF880B584B000AF786006
S1131CB0114BFB60FB687A681A60104B0F4A52693B
S1131CC0802189000A435A610C4B0C4A11680C4A62
S1131CD00A401A600B4B0B4A516A0B4A0A40802196
S1131CE049000A435A62094BFA685A60FB68181C97
S1131CF0BD4604B080BDC0466CF1FF1F80F00F40AC
S1131D00FFFDFFFF00B00440FFF8FFFE3CF0FF1FA3
S1131D1080B582B000AF78600A1CFB1C1A70FB1CF3
S1131D201B78002B04D0064B802292005A6003E0FB
S1131D30034B802292009A60BD4602B080BDC0462B
S1131D4080F00FF880B584B000AF7860094BFB6079
S1131D50FB687A681A60084B074A526908218A436B
S1131D605A61064BFA685A64FB68181CBD4604B0F5
S1131D7080BDC04670F1FF1FC0F00F403CF0FF1F54
S1131D8080B584B000AF7860064B1A69082313400D
S1131D90FB60FB685A1E9341DBB2181CBD4604B0BD
S1131DA080BDC046C0F00FF880B584B000AF786045
S1131DB0104BFB60FB687A681A600F4B0E4A52693D
S1131DC004210A435A610C4B0B4A126804218A43CA
S1131DD01A600A4B094A9168094A0A40802149005D
S1131DE00A439A60074BFA681A64FB68181CBD46DC
S1131DF004B080BD74F1FF1F80F00F4000B00440B8
S1131E00FFF8FFFE3CF0FF1F80B582B000AF7860A2
S1131E10024B04225A60BD4602B080BD80F00FF828
S1131E2080B584B000AF7860104BFB60FB687A68C3
S1131E301A600F4B0E4A526902210A435A610C4B35
S1131E400B4A126802218A431A600A4B094A5168F4
S1131E50094A0A40802149000A435A60074BFA683C
S1131E601A60FB68181CBD4604B080BD78F1FF1FE2
S1131E70C0F00F4000C00440FFF8FFFE3CF0FF1F1D
S1131E8080B582B000AF7860024B02225A60BD4632
S1131E9002B080BDC0F00FF880B584B000AF7860A8
S1131EA0614BFB60FB6800221A81FB6800221A82E6
S1131EB0FB680022DA60FB6800225A82FB68002279
S1131EC01A83FB6800225A61FB687A68DA61574B0F
S1131ED0FA681A60564A5649564BCB588021C900B5
S1131EE01943544BD150544B534A5168534A0A40F6
S1131EF0802189000A435A604F4B4F4A91684F4AE8
S1131F000A40802189000A439A604D4A4C49C32300
S1131F109B00CB58FF218B4380211943C3239B0093
S1131F20D150474B464A1268802149010A431A603E
S1131F30444B444AD278D2B208218A43D2B2DA70EE
S1131F40404B404AD278D2B204218A43D2B2DA70EA
S1131F50FB6800221A80FB6800225A60394B002279
S1131F609A70384B00229A71364B00229A72354B84
S1131F7000225A712E4A2E49334BC958334B0B4019
S1131F808021C9041943304BD1502E4B2D4A12786D
S1131F90D2B21F218A43D2B21A702A4B2E225A700F
S1131FA0284B284A927AD2B2D2B21F218A43D2B2A3
S1131FB003210A43D2B2D2B29A72224B214AD27A74
S1131FC0D2B2D2B202210A43D2B2D2B2DA721D4BD9
S1131FD01C4AD278D2B2D2B208210A43D2B2D2B2C7
S1131FE0DA70184B174AD278D2B2D2B204210A431B
S1131FF0D2B2D2B2DA70134B124AD278D2B22021C2
S11320000A43D2B2DA700F4B0E4A9279D2B20F2140
S11320100A43D2B29A710E4BFA68DA63FB68181C51
S1132020BD4604B080BDC0467CF1FF1F9CF1FF1F7C
S1132030007004403410000000900440FFF8FFFEDC
S113204000E100E000A0064004100000FFFFFFF3E1
S11320503CF0FF1F80B586B000AFF860B960BB1DCF
S11320601A80FB687B61BB1D1B88002B01D1842374
S113207033E07B691B8A002B01D008232DE03B1C35
S11320801333EFF3108072B61870164B1B78DBB263
S11320900133DBB2134A191C1170012B04D13B1C10
S11320A013331A78104B1A707B69BA68DA607B694B
S11320B0BA1D12881A827B6900221A81094B1B7887
S11320C0DBB2013BDBB2074A191C1170002B03D1B0
S11320D0054B187880F310880023181CBD4606B001
S11320E080BDC04648F1FF1FE8F1FF1F80B586B0F0
S11320F000AFF860B960BB1D1A80FB687B61BB1D33
S11321001B88002B01D1842348E07B691B8B002BA7
S113211001D0082342E03B1C1333EFF3108072B666
S11321201870204B1B78DBB20133DBB21D4A191C3B
S11321301170012B04D13B1C13331A781A4B1A70FB
S11321407B69BA685A617B69BA1D12881A837B69F4
S113215000225A827B691B88012213439AB27B694D
S11321601A80124B114AD278D2B2802149420A43D2
S1132170D2B2DA700D4B0D4A9279D2B29A71094BF0
S11321801B78DBB2013BDBB2064A191C1170002B31
S113219003D1054B187880F310880023181CBD4622
S11321A006B080BD48F1FF1FE8F1FF1F00A0064004
S11321B090B583B000AF7860124BDB79DBB21C1CA6
S11321C07B681B8A002B1AD07B68DB68E2B21A702A
S11321D05A1C7B68DA607B681B8901339AB27B687E
S11321E01A817B681A897B681B8A9A4207D17B68AB
S11321F000221A827B68DB69181CFEF7B7FFBD4614
S113220003B090BD00A0064080B582B000AF7860F6
S11322107B685A8A7B681B8B9A421CD2194A7B685A
S11322205B691978D1715A1C7B685A617B685B8A37
S113223001339AB27B685A827B685A8A7B681B8B0B
S11322409A421CD17B6800221A837B68DB69181CC4
S1132250FEF7CCFF13E00B4B0A4AD278D1B27F22AF
S11322600A40D2B2DA70074B064A9279D2B29A7116
S11322707B681B88012293439AB27B681A80BD460F
S113228002B080BD00A00640F0B5474680B482B0DD
S113229000AF3A4B1B687B60394B1B79DBB21C1CCB
S11322A000250026221C0F2313404BD0344B0F2251
S11322B01A71334BDB79DBB29846221C022313409C
S11322C013D0221C202313400CD04246002A09D1EB
S11322D0731CDEB27B681B88022213439AB27B68AC
S11322E01A8002E004232B439DB2221C08231340CE
S11322F002D001232B439DB2221C0123134002D0A0
S113230002232B439DB2221C0423134002D0082332
S11323102B439DB27B685A682B1C1A437B685A6016
S11323202023221C9A43131C9CB2002E05D07B68E8
S1132330DB69181CFEF7E6FF04E07B68DB69181C08
S1132340FEF798FF221C2023134003D07B68181C3F
S1132350FFF72EFF7B681B881A1C0123134007D04C
S1132360221C8023134003D07B68181CFFF74CFF0A
S1132370BD4602B004BC9046F0BDC0469CF1FF1FB0
S113238000A0064080B584B000AF786039607B68F7
S1132390FB603B1C0B33EFF3108072B61870144BC8
S11323A01B78DBB20133DBB2114A191C1170012B0B
S11323B004D13B1C0B331A780E4B1A70FB685A6815
S11323C03B681A60FB6800225A60094B1B78DBB239
S11323D0013BDBB2064A191C1170002B03D1054BDB
S11323E0187880F310880023181CBD4604B080BD03
S11323F048F1FF1FE8F1FF1F80B584B000AF78609B
S11324004F4BFB60FB6800221A81FB6800221A8292
S1132410FB680022DA60FB6800225A82FB68002213
S11324201A83FB6800225A61FB687A68DA61454BBB
S1132430FA681A60444A4449444BCB588021090144
S11324401943424BD150424B414AD168414A0A4058
S1132450C02189000A43DA603D4B3D4A11693D4A77
S11324600A40C02189000A431A613B4A3A49C323FE
S11324709B00C958394B0B40802109021943C323DF
S11324809B00D150344B344A1268802189010A439D
S11324901A60334B324AD278D2B208218A43D2B27C
S11324A0DA702F4B2E4AD278D2B204218A43D2B2A8
S11324B0DA70FB6800221A80FB6800225A60284BFD
S11324C000229A70264B00229A71254B00225A71E1
S11324D0234B234A1278D2B21F218A43D2B21A70F4
S11324E01F4B17225A701E4B1D4AD278D2B2D2B259
S11324F008210A43D2B2D2B2DA70194B184AD27800
S1132500D2B2D2B204210A43D2B2D2B2DA70144B9C
S1132510134AD278D2B220210A43D2B2DA70104BD5
S11325200F4A9279D2B20F210A43D2B29A710D4B5B
S1132530FA689A64FB68181CBD4604B080BDC046A6
S1132540A0F1FF1FC0F1FF1F007004403410000011
S113255000B00440FFF8FFFE00E100E0FF00FFFFD1
S113256000B006403CF0FF1F80B586B000AFF860B5
S1132570B960BB1D1A80FB687B61BB1D1B88002BE7
S113258001D1842333E07B691B8A002B01D008230B
S11325902DE03B1C1333EFF3108072B61870164B0A
S11325A01B78DBB20133DBB2134A191C1170012B07
S11325B004D13B1C13331A78104B1A707B69BA6828
S11325C0DA607B69BA1D12881A827B6900221A813B
S11325D0094B1B78DBB2013BDBB2074A191C1170B3
S11325E0002B03D1054B187880F310880023181CA6
S11325F0BD4606B080BDC04648F1FF1FE8F1FF1F8D
S113260080B586B000AFF860B960BB1D1A80FB6866
S11326107B61BB1D1B88002B01D1842348E07B69AF
S11326201B8B002B01D0082342E03B1C1333EFF338
S1132630108072B61870204B1B78DBB20133DBB20A
S11326401D4A191C1170012B04D13B1C13331A7839
S11326501A4B1A707B69BA685A617B69BA1D128871
S11326601A837B6900225A827B691B8801221343E7
S11326709AB27B691A80124B114AD278D2B2802165
S113268049420A43D2B2DA700D4B0D4A9279D2B262
S11326909A71094B1B78DBB2013BDBB2064A191C69
S11326A01170002B03D1054B187880F31088002398
S11326B0181CBD4606B080BD48F1FF1FE8F1FF1F9E
S11326C000B0064090B583B000AF7860124BDB7960
S11326D0DBB21C1C7B681B8A002B1AD07B68DB686E
S11326E0E2B21A705A1C7B68DA607B681B8901337A
S11326F09AB27B681A817B681A897B681B8A9A4222
S113270007D17B6800221A827B68DB69181CFEF7FC
S11327100FFCBD4603B090BD00B0064080B582B04A
S113272000AF78607B685A8A7B681B8B9A421CD204
S1132730194A7B685B691978D1715A1C7B685A61A4
S11327407B685B8A01339AB27B685A827B685A8AB7
S11327507B681B8B9A421CD17B6800221A837B689E
S1132760DB69181CFEF724FC13E00B4B0A4AD278F1
S1132770D1B27F220A40D2B2DA70074B064A92796C
S1132780D2B29A717B681B88012293439AB27B6808
S11327901A80BD4602B080BD00B00640F0B5474681
S11327A080B482B000AF384B1B687B60374B1B7919
S11327B0DBB21C1C00250026221C0F23134048D02A
S11327C0324BDB79DBB29846221C0223134013D030
S11327D0221C202313400CD04246002A09D1731C2A
S11327E0DEB27B681B88022213439AB27B681A808C
S11327F002E004232B439DB2221C0823134002D081
S113280001232B439DB2221C0123134002D0022337
S11328102B439DB2221C0423134002D008232B43D4
S11328209DB27B685A682B1C1A437B685A6020232C
S1132830221C9A43131C9CB2002E05D07B68DB69D2
S1132840181CFEF741FC04E07B68DB69181CFEF7EA
S1132850F3FB221C2023134003D07B68181CFFF7D2
S113286031FF7B681B881A1C0123134007D0221CEC
S11328708023134003D07B68181CFFF74FFFBD462D
S113288002B004BC9046F0BDC0F1FF1F00B006408A
S113289080B584B000AF786039607B68FB603B1C16
S11328A00B33EFF3108072B61870144B1B78DBB245
S11328B00133DBB2114A191C1170012B04D13B1CEA
S11328C00B331A780E4B1A70FB685A683B681A600F
S11328D0FB6800225A60094B1B78DBB2013BDBB278
S11328E0064A191C1170002B03D1054B187880F38C
S11328F010880023181CBD4604B080BD48F1FF1F9A
S1132900E8F1FF1F80B500AF054A064BD31A054A0C
S1132910101C00211A1C00F08DFBBD4680BDC04672
S1132920ECF1FF1F00F0FF1F00F054FCFEF706FD62
S1132930FFF7E8FF00F026FC00F0C2FB00F058FCB3
S1132940044B0020191C00F00DF8031C181C00F0A7
S113295055FBC046C4F1FF1F80B582B000AF78605C
S1132960FEE7C04680B586B000AF3B1C163300229C
S11329701A803B1C143300221A803B1C12330022A1
S11329801A80FEF76BFD00F0A5F9C046C94B5B6CDD
S1132990181CFFF7F5F9031C002BF7D100E0C04623
S11329A03B1C181C00F0B6F93B1C1A883B1C5B88C6
S11329B0D31899B23B1C9A883B1C0E338A181A8090
S11329C03B1CDA883B1C1B89D31899B23B1C5A89DF
S11329D03B1C0C338A181A803B1C103300221A80CB
S11329E012E03B1C10331A883B1C5200D35A181CAB
S11329F0FDF736FF2020FDF761FE3B1C10333A1C27
S1132A001032128801321A803B1C10331B88052BAC
S1132A10E7D95220FDF752FE3D20FDF74FFE3B1C47
S1132A200C331B88181CFDF71BFF2020FDF746FE06
S1132A304C20FDF743FE3D20FDF740FE3B1C0E33CA
S1132A401B88181CFDF70CFFFDF74AFE3A1C0C32DC
S1132A503B1C0E3312881B889A425ED93B1C1B8890
S1132A60002B2DD13B1C5B88002B29D03B1C14333D
S1132A701B88182B06D83B1C14333A1C14321288BA
S1132A8005321A80322000F079FA3B1C14331B887B
S1132A9019339BB2181C00F071FA3B1C14331B88C9
S1132AA03222D31A9BB2181C00F030FAFA231B010D
S1132AB0181CFDF76DFD3B1C123300221A8028E020
S1132AC03B1C5B88002B24D13B1C12331B88182B26
S1132AD006D83B1C12333A1C1232128805321A8073
S1132AE03B1C12331B8832339BB2181C00F046FA8D
S1132AF03B1C12331B881922D31A9BB2181C00F0FA
S1132B0005FA3B1C143300221A806B4B181CFDF78A
S1132B103FFD3B1C163300221A803A1C0E323B1C2C
S1132B200C3312881B889A425BD93B1C5B89002BAF
S1132B302AD13B1C1B89002B26D03B1C14331B8839
S1132B40182B06D83B1C14333A1C14321288053255
S1132B501A803B1C14331B883222D31A9BB2181CD4
S1132B6000F00CFA3B1C14331B8819339BB2181C5D
S1132B7000F0CCF9FA231B01181CFDF709FD3B1CDE
S1132B80123300221A8028E03B1C1B89002B24D11D
S1132B903B1C12331B88182B06D83B1C12333A1CDF
S1132BA01232128805321A803B1C12331B881922F8
S1132BB0D31A9BB2181C00F0E1F93B1C12331B889A
S1132BC032339BB2181C00F0A1F93B1C14330022D1
S1132BD01A80394B181CFDF7DBFC3B1C1633002212
S1132BE01A803B1C0C331B88002B2ED03B1C0E334D
S1132BF01B88002B29D03B1C9B88002B25D13B1C18
S1132C00DB88002B21D13A1C0C323B1C0E3312887A
S1132C101B889A4219D13B1C0C331B88022B14D1FC
S1132C20322000F0ABF9322000F070F90620FDF7F5
S1132C30EFFC3B1C143300221A803B1C123300228D
S1132C401A803B1C163300221A803B1C0C331B8851
S1132C50002B16D13B1C0E331B88002B11D10020F6
S1132C6000F08CF9002000F051F93B1C14330022D1
S1132C701A803B1C123300221A803B1C163300229C
S1132C801A803B1C0C331B88032B00D087E63B1CAB
S1132C900E331B88032B00D081E63B1C16331B88A4
S1132CA0962B0BD1002000F069F9002000F02EF9DA
S1132CB075E6C0463CF0FF1F102700003B1C16338E
S1132CC03A1C1632128801321A800620FDF7A0FC45
S1132CD065E6C04680B500AF0C4B1A690C4B101C5E
S1132CE0191CFEF70DF8094B5A69094B101C191CE5
S1132CF0FDF77AFF054B1B69181CFDF7E9FF034B31
S1132D005B69181CFDF758FFBD4680BD3CF0FF1FF2
S1132D10FFFF000080B584B000AF78607A4B1B6C75
S1132D20181CFFF771F83B1C0C3300221A800EE0CC
S1132D303B1C0C331B885B007A68D31800221A8072
S1132D403B1C0C333A1C0C32128801321A803B1C97
S1132D500C331B88052BEBD96B4B5B6A181C0121C8
S1132D60FEF70CFF684B5B6A181CFEF743FF664BCB
S1132D705B6A181C0121FEF701FF634B5B6A181C98
S1132D80FEF738FF604B9B6A181C0121FEF77EFE9C
S1132D905D4B9B6A181CFEF7B5FE5B4BDB6A181C87
S1132DA00121FEF7FBFD584BDB6A181CFEF732FECF
S1132DB0554B1B6B181C0121FEF778FD524B1B6B06
S1132DC0181CFEF7AFFD504B5B6B181C0121FEF77E
S1132DD0F5FC4D4B5B6B181CFEF72CFD4A4B9B6BB3
S1132DE0181C0121FEF772FC474B9B6B181CFEF765
S1132DF0A9FCC8235B00181CFDF7CAFB424B5B6AA5
S1132E00181C0021FEF7BAFE3F4B9B6A181C0021D8
S1132E10FEF73CFE3C4BDB6A181C0021FEF7BEFDAE
S1132E20394B1B6B181C0021FEF740FD364B5B6BC6
S1132E30181C0021FEF7C2FC334B9B6B181C0021AD
S1132E40FEF744FC0020FEF7F7FB0020FEF702FC2F
S1132E50021C3B1C0E331A8006E00020FEF7FAFB2E
S1132E60021C3B1C0E331A803B1C0E331B88182B90
S1132E70F3D9254B5B6A181CFEF79EFE031C002B3E
S1132E8002D17B6801221A801F4B9B6A181CFEF733
S1132E901BFE031C002B03D17B68023301221A8022
S1132EA0194BDB6A181CFEF797FD031C002B03D19A
S1132EB07B68043301221A80134B1B6B181CFEF72A
S1132EC013FD031C002B03D17B68063301221A80F7
S1132ED00D4B5B6B181CFEF78FFC031C002B03D1FE
S1132EE07B68083301221A80074B9B6B181CFEF782
S1132EF00BFC031C002B03D17B680A3301221A80CC
S1132F00BD4604B080BDC0463CF0FF1F80B584B010
S1132F1000AF021CBB1D1A80BB1D1B88642B04D987
S1132F203B1C0E3364221A8004E03B1C0E33BA1D92
S1132F3012881A803B1C0E331A88131C1B049B1A1C
S1132F40181C6421FDF7B2FA031C9AB23B1C0E3321
S1132F50D2431A80084B9B68181C0021FEF78AFE96
S1132F60054B5A693B1C0E331B88101C191CFDF7BA
S1132F703BFEBD4604B080BD3CF0FF1F80B584B06D
S1132F8000AF021CBB1D1A80BB1D1B88642B04D917
S1132F903B1C0E3364221A8004E03B1C0E33BA1D22
S1132FA012881A803B1C0E331A88131C1B049B1AAC
S1132FB0181C6421FDF77AFA031C9AB23B1C0E33E9
S1132FC0D2431A80084B5B68181C0021FEF7A0FE50
S1132FD0054B1A693B1C0E331B88101C191CFDF78A
S1132FE08FFEBD4604B080BD3CF0FF1F80B500AF2E
S1132FF0BD4680BD80B500AFBD4680BD38B5051C5B
S113300000F0DAF800F080F8084C2368002B02D0B6
S1133010984700202060064C2168002902D0884788
S113302000222260281CFFF797FC38BDC8F1FF1F5F
S1133030CCF1FF1F10B5041C00F002F8201C10BDD9
S113304030B5C9B2031C1F2A31D94442032323409B
S113305005D0D21AC51801700130A842FBD100294D
S113306005D00D060C042C430B02214319435409CB
S1133070031C002C0ED0251C013D19605960996079
S1133080D960196159619961D9612033002DF3D157
S11330906301C318D006400F07D0041C1D1C013C5B
S11330A002C5002CFBD180001B18032422409D186C
S11330B0002A03D019700133AB42FBD130BD0000AC
S11330C010B50B4C0B4B9C4202D001CC8047F9E766
S11330D0094C0A48844202D008CC9847F9E7084CC6
S11330E008498C4202D004CC9047F9E710BDC04691
S11330F0FC310000FC310000FC310000FC31000018
S1133100FC310000FC31000010B5084C084B9C4217
S113311002D004CC9047F9E7064C0748844203D018
S1133120043C21688847F8E710BDC046FC31000024
S1133130FC310000FC310000FC31000000B5884285
S11331401FD0002A1DD00323194207D1184205D1EC
S11331509A4203D908C9043A08C0F2E70123194284
S113316009D1184207D19A4205D90B88023A038043
S113317002310230E5E70B78013A03700131013086
S1133180DFE700BD38B50B4D002D11D000242B19FD
S11331901968002906D02B1958689A68FFF7CEFFE2
S11331A00C34F4E75A68002AF5D198680028F2D163
S11331B038BDC046FC310000054B10B51C68002C1E
S11331C004D0A068616888472468F8E710BDC04649
S11331D0DCF1FF1F054B181C002805D0854681B083
S11331E00020C043009001B0F74670470030002033
S10F31F0F74670470500000000000000D6
S11331FCFC31000000F0FF1F000000000000000084
S10B320C0000000000000000B6
S9032929AA
